:1000000000308A0019280000223084008313000881
:10001000031918280130F800F701F70B0D28F80B29
:100020000C284A30F700F70B13281628800B0A28F3
:10003000080003081F39830083161F129F121B0834
:1000400080399B0007309C0083130610831206142E
:1000500083168610831286100E30A100FA30A2009B
:100060000420A10B2E288316061083120610831677
:100070000611831206150830A100FA30A2000420F0
:10008000A10B3D28831606118312061183168610D4
:10009000831286140430A100FA30A2000420A10BC0
:0800A0004C288316252863009B
:04400E00013FFF3F30
:00000001FF
;PIC16F88
;CRC=738E  CREATED="01-jan-21 16:21"
